:020000040800F2
:10000000100E002045010008B10A000897230008DF
:10001000B30A0008B70A0008BB0A00080000000085
:10002000000000000000000000000000BF0A0008FF
:10003000C10A0008000000001F230008970B0008F9
:100040005F0100085F0100085F0100085F01000810
:100050005F0100085F0100085F0100085F01000800
:100060005F0100085F0100085F0100085F010008F0
:100070005F0100085F0100085F0100085F010008E0
:100080005F0100085F0100085F0100085F010008D0
:100090005F0100085F0100085F0100085F010008C0
:1000A0005F0100085F0100085F0100085F010008B0
:1000B0005F0100085F0100085F0100085F010008A0
:1000C0005F0100085F0100085F0100085F01000890
:1000D0005F0100085F0100085F0100085F01000880
:1000E0005F0100085F0100085F0100085F01000870
:1000F0005F0100085F0100085F0100085F01000860
:100100005F0100085F0100085F0100085F0100084F
:100110005F0100085F0100085F0100085F0100083F
:100120005F0100085F0100085F0100085F0100082F
:10013000DFF80CD002F054F900480047BB0C00086F
:10014000100E00200648804706480047FEE7FEE7FD
:10015000FEE7FEE7FEE7FEE7FEE7FEE7FEE7FEE777
:1001600047020008310100080CB500200190009002
:100170006C48006840F480306A49086000BF6948F4
:10018000006800F4003000900198401C0190009835
:1001900018B90198B0F5A06FF1D16248006800F479
:1001A000003010B10120009001E000200090009884
:1001B000012843D15C48006840F010005A490860AB
:1001C0000846006820F0030008600846006840F018
:1001D0000200086053484068524948600846406839
:1001E00048600846406840F48060486008464068BF
:1001F00020F47C1048600846406840F4E8104860ED
:100200000846006840F08070086000BF45480068FC
:1002100000F000700028F9D04248406820F0030048
:10022000404948600846406840F00200486000BF0E
:100230003C48406800F00C000828F9D10CBD10B50E
:10024000FFF792FF10BD10B53648006840F001007E
:1002500034490860084640683449084031494860DC
:1002600008460068324908402E4908600846006880
:1002700020F4802008600846406820F4FE004860B2
:100280004FF41F008860FFF7DAFF4FF00060294944
:10029000086010BD10B5002100200022214B5B68D2
:1002A00003F00C0121B1042906D0082928D107E068
:1002B000214B224C236027E01F4B204C236023E07E
:1002C000184B5B6803F47010164B5B6803F48032C4
:1002D000022303EB904022B9194B4343174C236090
:1002E0000DE0104B5B6803F4003323B1144B434320
:1002F000124C236003E0104B4343104C236003E097
:100300000D4B0E4C236000BF00BF064B5B68C3F370
:1003100003130C4CE15C094B1B68CB40074C23607A
:1003200010BD000000100240002002400000FFF855
:10033000FFFFF6FE08ED00E000127A00000000204A
:1003400000093D000400002010B50446CC4884425A
:1003500008D10121042000F02DFB0021042000F031
:1003600029FB46E0C748844208D10121082000F05B
:1003700021FB0021082000F01DFB3AE0C248844226
:1003800008D10121102000F015FB0021102000F001
:1003900011FB2EE0BD48844208D10121202000F04D
:1003A00009FB0021202000F005FB22E0B848844230
:1003B00008D10121402000F0FDFA0021402000F08A
:1003C000F9FA16E0B348844208D10121802000F0F8
:1003D000F1FA0021802000F0EDFA0AE0AE488442F4
:1003E00007D10121801500F0E5FA0021A01500F0E9
:1003F000E1FA10BD10B50121084600F0DBFA00213A
:10040000012000F0D7FA10BD2DE9F0410246002589
:100410000026002000230024002791F803C00CF0E0
:100420000F0591F803C00CF0100CBCF1000F03D0C5
:1004300091F802C04CEA050591F800C0BCF1000F2C
:1004400031D0146800202BE04FF0010C0CFA00F3BF
:10045000B1F800C00CEA03069E4220D183004FF0A1
:100460000F0C0CFA03F7BC4305FA03FC4CEA040436
:1004700091F803C0BCF1280F06D14FF0010C0CFA23
:1004800000FCC2F814C00AE091F803C0BCF1480FA8
:1004900005D14FF0010C0CFA00FCC2F810C0401C52
:1004A0000828D1D31460B1F800C0BCF1FF0F34DDCF
:1004B000546800202EE000F1080C4FF0010808FA03
:1004C0000CF3B1F800C00CEA03069E4221D1830070
:1004D0004FF00F0C0CFA03F7BC4305FA03FC4CEA8F
:1004E000040491F803C0BCF1280F05D100F1080CF9
:1004F00008FA0CF8C2F8148091F803C0BCF1480F58
:1005000007D100F1080C4FF0010808FA0CF8C2F806
:100510001080401C0828CED35460BDE8F0814FF60F
:10052000FF710180022181700421C1707047024671
:10053000002093680B400BB1012000E000207047C1
:100540000146886880B2704702460020D3680B409D
:100550000BB1012000E0002070470146C86880B25E
:10056000704701617047416170470AB1016100E065
:1005700041617047C16070474FF480320A43826125
:100580008161826182698269704702460020434B23
:1005900018684FF68073184040EA021008433F4B3A
:1005A000186070473E49C8617047F0B50A4600239D
:1005B00000240021002500F00046B6F1004F02D1D2
:1005C000364EF16901E0354E7168C0F3034583B2E0
:1005D00000F44016B6F5401F08D121F070612F4E8F
:1005E000766826F070662D4F7E6012E000F480166B
:1005F000B6F5801F06D1032606FA05F4A14341F0A3
:10060000706106E0460D360103FA06F6B14341F08B
:10061000706122B1460D360103FA06F6314300F04F
:100620000046B6F1004F02D11C4EF16101E01B4EB5
:100630007160F0BD30B500228B071C0F0F2303FA49
:1006400004F2164B08338C1053F824309343134CA8
:1006500008348D1044F8253023468C1053F824308C
:100660008C07240F00FA04F423430C4C08348D103B
:1006700044F8253030BD0A49DC310860704700007D
:1006800000080140000C014000100140001401402E
:1006900000180140001C0140002001400000014002
:1006A00000002042DF48006840F00100DD4908609A
:1006B00008464068DC490840DA4948600846006856
:1006C000DA490840D74908600846006820F48020CD
:1006D00008600846406820F4FE0048604FF41F00A0
:1006E00088607047CF49096821F48031CD4A116094
:1006F0001146096821F480211160B0F5803F03D0D4
:10070000B0F5802F0ED106E0C649096841F480316A
:10071000C44A116007E0C349096841F4A021C14AF5
:10072000116000E000BF00BF704710B50146002215
:10073000002300204A11012A02D1BA4C236806E0A6
:10074000022A02D1B74C236A01E0B64C636A01F079
:100750001F02012494401C400CB1012000E0002045
:1007600010BD38B5002000900024002500BF3120C6
:10077000FFF7DBFF05460098401C00900098B0F59D
:10078000A06F01D0002DF2D03120FFF7CEFF08B1CD
:10079000012400E00024204638BD01460020A14A83
:1007A000106820F0F80040EAC10010607047A049CE
:1007B00008607047024600209A4B586820F47C106D
:1007C00042EA01031843974B5860704798490866FE
:1007D000704701460020934A506820F00300084308
:1007E000506070478F48406800F00C007047014629
:1007F00000208C4A506820F0F00008435060704799
:1008000001460020874A506820F4E06008435060A9
:10081000704701460020834A506820F4605040EA47
:10082000C1005060704729B17E4A527A02437D4B25
:100830005A7204E07B4A527A82437A4B5A7270476A
:100840007B49D8310860704701460020754A5068DE
:1008500020F440400843506070470021714A203224
:100860001170704A82F82010012802D004280AD1A1
:1008700004E001216B4A2032117005E00521694A2C
:100880002032117000E000BF00BF70476949086066
:1008900070476449096A0143624A116270476549B9
:1008A00044390860704730B500210022002400233D
:1008B0005C4D6D6805F00C0121B1042905D00829B3
:1008C00023D105E05C4D056022E05B4D05601FE033
:1008D000544D6D6805F47012524D6D6805F4803406
:1008E000022505EB92421CB9544D554305600BE0BF
:1008F0004C4D6D6805F400351DB1504D55430560F4
:1009000002E04D4D5543056002E04B4D056000BFD0
:1009100000BF444D6D6805F0F0010909484D6B5C5E
:100920000568DD4045603F4D6D6805F4E061090AEA
:10093000434D6B5C4568DD4085603A4D6D6805F45C
:100940006051C90A3E4D6B5C4568DD40C560354D60
:100950006D6805F44041890B3A4D6B5CC568B5FB89
:10096000F3F5056130BD29B12E4A526902432D4B82
:100970005A6104E02B4A526982432A4B5A617047FC
:1009800029B1284A92690243264B9A6104E0254A1C
:1009900092698243234B9A61704729B1214AD269F7
:1009A0000243204BDA6104E01E4AD26982431D4BA8
:1009B000DA61704729B11B4AD2680243194BDA60E9
:1009C00004E0184AD2688243164BDA60704729B1B6
:1009D000144A12690243134B1A6104E0114A126966
:1009E0008243104B1A6170471249403908607047C2
:1009F0000F49C86470470B49C87170470948406A7D
:100A000040F0807007494862704701460020054A5F
:100A100092680A400AB1012000E0002070470149B5
:100A200088727047001002400000FFF8FFFFF6FEDA
:100A3000000042428004424200127A0000093D0058
:100A400014000020240000200EE02020124908603D
:100A50004FF4FA7001F031F920200F49091F0860A6
:100A60004FF4FA7001F029F9EFE71FB514200321C4
:100A70004FF48062094BCDE90032CDE9021000232A
:100A8000074A08A1094801F035F8084801F06DF857
:100A9000002004B010BD0000140C01402001002013
:100AA000490A00086C65643100000000A8000020BD
:100AB000704700BFFEE700BFFEE700BFFEE77047DC
:100AC0007047000008B501210820FFF759FF2020DA
:100AD000ADF8000010208DF8030003208DF802000F
:100AE00069460F48FFF790FC0120ADF80000694609
:100AF0000B48FFF789FC0220ADF800006946084862
:100B0000FFF782FC20210648FFF72BFD0121044856
:100B1000FFF727FD02210248FFF723FD08BD000073
:100B2000000C0140F0B585B0002500246846FFF7B1
:100B3000BAFE019D4FF47A70B5FBF0F400BF214678
:100B4000B1F1807F01D301201DE021F07F40401EE4
:100B50004FF0E022506150170F22002807DA1307E8
:100B60001F0E114B00F00F06361F9F5503E01307B1
:100B70001E0E0E4B1E5400BF00204FF0E02290616D
:100B80000720106100200028D9D1FFF79BFF00F05B
:100B90004DF805B0F0BD10B500F00CF900F017F8F5
:100BA00000F015F910BD000018ED00E000E400E0D1
:100BB000704719480068704770B5044601F098FB0B
:100BC000054615480460284601F096FB70BD10B537
:100BD00011480068401C1049086000F0A5FF044659
:100BE000206C401E2064206C18B9E06B206400F07B
:100BF000F5FF01F0ECF910BD0146002902DA4FF0D3
:100C0000FF3008E04FF47A724A4302F2E7324FF4C1
:100C10007A7392FBF3F070472800002000207047A1
:100C200000207047002070470020704710B5264C08
:100C300002E020688047241D24488442F9D310BD77
:100C400010B5224C02E020688047241D20488442D1
:100C5000F9D310BD10B50446FFF7F2FFFFF705FF0B
:100C600010BD7FB51B4C14200A214FF400721A4BA3
:100C7000CDE90032CDE902100023AFF2270217A11F
:100C8000204600F037FF0546204600F06EFF7FBD8E
:100C900010B501F02DFBFFF745FF00F07BFC01F0E4
:100CA000D6F900F0B1FDFFF7DCFF01F0DCF900F050
:100CB00057F800F0C3FD002010BD10B501F018FB7F
:100CC000FFF7E6FF002010BD482500084C2500086E
:100CD0005025000820070020200500206D61696E66
:100CE0000000000070B531E001F002FB054600F0A5
:100CF0004CF818B329480068A0F1140404F114005A
:100D0000D0E900215160D0E900121160406000601C
:100D100000BF00F02AFE206F10B12046216F8847E7
:100D2000204600F03BFD012805D100F02CFE2846AE
:100D300001F0E2FA70BD00F026FE03E0284601F063
:100D4000DBFAF7E7284601F0D7FA00BF00F01DF8FC
:100D50000028C9D100BFEDE701E0FFF7C3FFFCE7C2
:100D60001FB520201F2180220D4BCDE90032CDE997
:100D7000021000230B4A0CA10D4800F0BBFE0C48EA
:100D800000F0F3FE1FBD0A48704704490868884216
:100D900001D0012070470020FCE700008400002003
:100DA00010080020590D00087469646C650000008B
:100DB0009807002010B501F09BFA04460C48007813
:100DC000401C0B490870204601F096FA10BD10B582
:100DD00001F08EFA044606480078401E0449087067
:100DE000204601F089FA10BD0148007870470000E4
:100DF0002C00002010B5FFF7F7FF10B1FE48006887
:100E000010BD00F091FE044614B9FB480068F7E7F6
:100E1000206BF5E770B50446FFF7E6FF10B1F64822
:100E2000046070BD00F080FE054615B9F24804600C
:100E3000F7E72C6300BFF4E710B5FFF7D5FF08B163
:100E4000ED4810BD00F070FE044614B104F130000E
:100E5000F7E7E948F5E7F0B50C460546E6B2042A9F
:100E600015D300F0030797B9014646EA062343EA83
:100E7000034304E008C108C108C108C1103A102AA0
:100E8000F8D201E008C1121F042AFBD20D4601E08E
:100E900005F8016B171EA2F10102F9D1F0BD2DE991
:100EA000F0410F46164604463D463346102B28D3E4
:100EB00005F0030C04F003084CEA080CBCF1000F29
:100EC0001FD121462A4610E052F804CB41F804CB4A
:100ED00052F804CB41F804CB52F804CB41F804CBD0
:100EE00052F804CB41F804CB103B102BECD204E0B9
:100EF00052F804CB41F804CB1B1F042BF8D20C464C
:100F0000154603E015F801CB04F801CBB3F1000C52
:100F1000A3F10103F6D1BDE8F08170B50C4601469E
:100F200023468B4210D29D188D420DD91144134493
:100F300005E05D1E2B462E784D1E29462E70151E8F
:100F4000A2F10102F5D108E003E013F8015B01F81A
:100F5000015B151EA2F10102F7D170BDF0B5034689
:100F600000201C460D4608E026782F78F61B301E20
:100F700000D004E0641C6D1C521E002AF4D800BF8F
:100F8000F0BD01460A4600E0521C10780028FBD153
:100F9000501A7047F0B506460F463846FFF7F1FF86
:100FA00005460DB93046F0BD3046FFF7EAFF04466E
:100FB00009E0641E2A4639463046FFF7CFFF08B9DC
:100FC0003046F0E7761CAC42F3DA0020EBE730B5B0
:100FD00003460C4600BF13F8011B14F8012B4129EE
:100FE00002DB5A2900DC2031412A02DB5A2A00DCCC
:100FF0002032914201D10029EDD1881A30BD70B55F
:101000000346A2B118460C4600BF14F8016B00F865
:10101000016B3EB902E0002500F8015B551E2A1E57
:10102000F9D102E0551E2A1EEFD100BF00BF1846BD
:1010300070BD30B5034600200BE011F8015B1C7851
:10104000641B64B2201E02D113F8015B05B902E0F3
:10105000521E002AF1D100BF30BD024601E0521CF1
:10106000491C107818B110780B789842F7D0107896
:101070000B78C01A704702460B46114600E0491C27
:10108000087810B1881A9842F9D3881A70477047C7
:101090002DE9F04F85B00D469C46DDE90F740E9B9F
:1010A00004F04008B8F1000F02D0DFF8508101E0F1
:1010B000DFF84C81CDF8008004F01008B8F1000F83
:1010C00001D024F0010404F00108B8F1000F02D0AF
:1010D0004FF0300801E04FF02008C246002604F02F
:1010E0000208B8F1000F11D0002A02DA2D26524270
:1010F0000CE004F00408B8F1000F01D02B2605E045
:1011000004F00808B8F1000F00D02026002142B9F1
:101110004FF0300B8846491C0DF1040909F808B05E
:101120001DE01AE0E146B9F10A0F08D14FF00A0BB1
:10113000B2FBFBFE0BFB1E28B2FBFBF202E002F04F
:101140000F08120900BFDDF8009019F808B08846B2
:10115000491C0DF1040909F808B0002AE2D1B9428E
:1011600000DD0F46DB1B04F01108B8F1000F10D1B1
:1011700016B1002B00DD5B1E06E0A84203D84FF03D
:10118000200880F80080401CB3F10008A3F101039F
:10119000F3DC26B1A84201D806705B1E401C04F0A7
:1011A0001008B8F1000F0AD104E0A84201D880F875
:1011B00000A0401CB3F10008A3F10103F5DC06E038
:1011C000A84203D84FF0300880F80080401CB84691
:1011D0007F1E8845F4DC08E0A84205D80DF104081C
:1011E00018F8018080F80080401CB1F10008A1F1DE
:1011F0000101F1DC0DE00000300000203325000883
:1012000022250008A84203D84FF0200880F800806B
:10121000401CB3F10008A3F10103F3DC05B0BDE805
:10122000F08F0146002009E00B685A1C0A601A780A
:1012300000EB800302EB4302A2F130000A6812784F
:10124000303A0A2AF0D370472DE9FF4F89B0804623
:1012500044460A984044461E464504D24FF0FF36A5
:10126000A6EB08000A906FE10B980078252806D0BD
:10127000B44202D80B9800782070641C61E100250C
:1012800026E00B98401C0B900B9800782D2802D17B
:1012900045F010051CE00B9800782B2802D145F092
:1012A000040515E00B980078202802D145F00805C8
:1012B0000EE00B980078232802D145F0200507E0C6
:1012C0000B980078302802D145F0010500E000E0DD
:1012D000D7E700BF4FF0FF370B98007830380A2867
:1012E00004D20BA8FFF79DFF07460EE00B9800788D
:1012F0002A280AD10B98401C0B900C9880C80C909F
:10130000002F02DA7F4245F010054FF0FF390B98AD
:1013100000782E281CD10B98401C0B900B9800785D
:1013200030380A2804D20BA8FFF77BFF81460AE079
:101330000B9800782A2806D10B98401C0B900C982B
:1013400050F8049B0C90B9F1000F01DA4FF000093E
:10135000002004900B980078682803D00B98007840
:101360006C2805D10B98007804900B98401C0B90CA
:101370000A2005900B9800786F2875D00CDC632844
:1013800013D004DC252870D058286FD18DE0642854
:101390006DD06928F9D18FE070286AD0732825D0E4
:1013A000752878D07828F0D182E005F0100040B997
:1013B00004E0B44201D820202070641C781E071E6F
:1013C000F7DC0C9810F8041B0C90C8B20790B442DC
:1013D00001D807982070641C04E0B44201D8202092
:1013E0002070641C781E071EF7DCAAE00C980068C9
:1013F00006900C98001D0C90069808B99CA00690C9
:101400000698FFF7BEFD8346B9F1000F02DDCB451C
:1014100000DDCB4605F0100048B904E0B44201D825
:1014200020202070641C38467F1E5845F6DC0020C2
:1014300008900BE0B44202D8069800782070641C33
:101440000698401C06900898401C0890089858453B
:10145000F0DB04E0B44201D820202070641C384640
:101460007F1E5845F6DC6CE01CE015E028E022E029
:10147000FFE7781C10B9082745F00105CDE9007990
:1014800002950C9804C8102331460C902046FFF7B3
:10149000FFFD044655E012E0B44201D8252020703B
:1014A000641C4EE0082005901DE045F0400500BF9B
:1014B0001020059017E000BF45F0020500BF12E0C4
:1014C000B44201D825202070641C0B98007830B1FC
:1014D000B44202D80B9800782070641C02E00B988C
:1014E000401E0B902DE000BF04986C2807D10C988B
:1014F00050F804AB0C9005F00200B8B116E0049867
:1015000068280BD10C9830F8041B1FFA81FA0C9054
:1015100005F0020050B10FFA8AFA07E00C9850F873
:1015200004AB0C9005F0020000B100BFCDE90079DA
:101530000295524631462046059BFFF7A9FD044619
:1015400000BF0B98401C0B900B98007800287FF48C
:101550008BAEB44201D8207001E000203070A4EBC3
:1015600008000DB0BDE8F08F0FB438B505A80090A5
:101570007F214148009B049AFFF766FE04467F2CBA
:1015800000D97F243C48FFF782FD0020009038BC42
:101590005DF814FB08B539A0FFF7E6FF3AA0FFF7A6
:1015A000E3FF42A0032300221946009042A0FFF768
:1015B000DBFF49A0FFF7D8FF08BD0FB4F8B504461C
:1015C0000D4609A8009029462046009B089AFFF77F
:1015D0003BFE0646002000903046F8BC5DF814FB48
:1015E00037B505460C4622464FF0FF312846029B90
:1015F000FFF72AFE3EBD0FB438B5044606A800909A
:101600002046009A0599FFF7EBFF05460020009061
:10161000284638BC5DF814FB10B5044604B910BD6B
:101620002046FFF734FD00BFF9E7014609B9002065
:101630007047C8B220B1C8B2324A105C401CF7E70C
:1016400001F47F4028B12F48C1F30722805C0930A4
:10165000EEE701F47F0028B12A48C1F30742805C1D
:101660001130E5E7274800EB116000781930DFE71B
:10167000284E554C4C290000900800200A205C2080
:101680007C202F0A000000002D205254202D202005
:10169000202020546872656164204F706572617407
:1016A000696E672053797374656D0A004F63742007
:1016B0003330203230313800202F207C205C202035
:1016C00020202025642E25642E2564206275696CF7
:1016D000642025730A0000002032303036202D208F
:1016E0003230313820436F707972696768742062D4
:1016F000792072742D746872656164207465616DFF
:101700000A000000222400087047024600210AE077
:101710003C4800EB01100078904203D1394800EBBF
:1017200001107047491C0429F2DB0020F9E72DE97C
:10173000F04104460D4616462846FFF7E6FF0746E9
:1017400045F080002072082231462046FFF757FC02
:1017500000F0CEFD8046381D04F10C010268516096
:1017600002680A600160486000BF404600F0C4FDA6
:10177000BDE8F08170B5044600F0BAFD054604F1FD
:101780000C00D0E900215160D0E9001211604060E6
:10179000006000BF284600F0AFFD70BD0146087A2A
:1017A00000F0800008B1012070470020FCE72DE91F
:1017B000F04104460D464FF00008002600270CB10A
:1017C0000B2D02DD0020BDE8F08100F0CEF81FB93E
:1017D0002846FFF79AFF07467E680CE0A6F10C0842
:1017E000082221464046FFF724FC18B900F0CBF848
:1017F0004046E8E73668381D8642EFD100F0C3F86E
:101800000020E0E73400002010B500206F49088078
:10181000002405E06E4901EBC40000F0D3F8641C1D
:10182000202CF7DB1F206B49087000206A490860F4
:101830006A4908606A4800F0C5F810BD70B567488D
:101840000068FFF7F2FE451E614850F83500A0F130
:1018500014046148046004F11C0000F07EFD70BDBA
:101860002DE9F04100F044FD07465848008868BB68
:101870005A480068FFF7D9FE461E554850F8360012
:10188000A0F114045448006884421BD051490E70E2
:101890005148056804605348007848B904F11C01B8
:1018A00005F11C0000F02BFD384600F025FD0CE092
:1018B00004F11C0105F11C0000F021FD384600F088
:1018C0001BFD02E0384600F017FD02E0384600F04C
:1018D00013FDBDE8F08170B5044600F009FD054632
:1018E00014F8340F20F00F0040F0010020706278EF
:1018F000343C374B03EBC20004F114014268116021
:1019000042684A604160086000BF3449A06B0968C2
:10191000084332490860284600F0EEFC70BD70B5FF
:10192000044600F0E5FC054604F11400D0E900216E
:101930005160D0E9001211604060006000BF94F86F
:101940003510234A02EBC1000168814201D1012117
:1019500000E0002129B12148A16B006888431F499C
:101960000860284600F0C8FC70BD10B500F0C0FC4F
:10197000044616480088401C00B2144908802046DE
:1019800000F0BAFC10BD10B500F0B2FC04460F48E0
:101990000088401E00B20D4908800846B0F90000DA
:1019A000002807DC00200880204600F0A5FCFFF797
:1019B00057FF02E0204600F09FFC10BD034800885E
:1019C00080B27047406000607047000074000020E3
:1019D000100900207C0000207800002080000020FA
:1019E000840000202C0000200268516002680A6018
:1019F000016048607047D0E900215160D0E90012D1
:101A0000116040600060704770B5DE48046800F007
:101A10006FFC05462046FFF782FF042084F834005F
:101A200004F1440000F018FA2046FFF7B7FE012841
:101A300005D1206F18B92046FFF79CFE04E004F1A1
:101A40001401D148FFF7D0FF284600F055FCFFF7FE
:101A500007FF70BD70B5044625466FF0010028638E
:101A600005F11400FFF7C7FF2846FFF734FFFFF723
:101A7000F7FE70BD2DE9FC5F04468B4615461E46F9
:101A8000DDE90C9ADDE90E7804F114004060006095
:101A900000BF1C346560A660C4F80C90C4F810A0A8
:101AA0002321D4E90302FFF7D6F9D4E9033C6344C8
:101AB0001A1FAFF2AB03D4E9010100F0E5FA206090
:101AC000A77667760020E061C4F82080C4F82480FF
:101AD000606120766065A0651C3C00902346AFF2F3
:101AE0008B022146019004F1440000F09EF9002091
:101AF000BDE8FC9F2DE9FF5F05460C4616461F46D4
:101B0000DDE910ABDDE90E89224600212846FFF70A
:101B10000EFE3B463246214628468DE8000FFFF771
:101B2000A9FF04B0BDE8F09F96480068704770B503
:101B3000044694F8340000F00F00022802D04FF061
:101B4000FF3070BD00F0D4FB054604F11400FFF730
:101B500052FF04F1440000F006FA284600F0CCFBE6
:101B60002046FFF7B8FE0020EBE710B504463434FA
:101B7000A07860706178012088406060022004F8DD
:101B800034092046FFF7D3FFFFF7CEFF08B1FFF778
:101B900067FE002010BD70B5044694F8340000F0D4
:101BA0000F0010B12046FFF7BAFE04F1440000F028
:101BB00053F9042084F834002046FFF7DBFD206F42
:101BC00050B100F095FB054604F114016E48FFF793
:101BD0000BFF284600F090FB002070BD70B500F0B0
:101BE00087FB05466748046894F8340000F00F004E
:101BF00001281CD1D4E90510814218D004F1140049
:101C0000FFF7F9FE94F83520604B03EBC20004F1B6
:101C100014014268116042684A604160086000BF78
:101C2000284600F069FBFFF71BFE002070BD284628
:101C300000F062FB0020F9E770B5044694F8340028
:101C400000F00F00012802D04FF0FF3070BD00F00F
:101C50004FFB054694F8340020F00F0040F00200DE
:101C600084F834002046FFF75AFE04F1440000F0E7
:101C70007AF9284600F040FB0020E7E731B500F094
:101C800037FB05463F4804682046FFF7D5FF6A4604
:101C9000002104F1440000F07EF904F1440000F05A
:101CA000EBF8284600F028FBFFF7DAFD206B801CDC
:101CB00008B900202063002038BD10B50446204636
:101CC000FFF7DCFF10BD2DE9F04104460E46154636
:101CD0002EB3022E28D100F00BFB074694F83400F7
:101CE00000F00F0001280ED12046FFF718FE2878DB
:101CF00084F8350094F8351001208840A063204610
:101D0000FFF7E9FD07E0287884F8350094F83510EE
:101D100001208840A063384600F0EEFA05E0204636
:101D2000FFF723FFBDE8F08100BF00BF0020F9E707
:101D30002DE9F0410646FFF7F7FE08B1FFF715FE63
:101D40000020FFF7E2FC0446656810E0A5F10C07EF
:101D5000082231463846FFF76CF938B9FFF7E4FE40
:101D600008B1FFF710FE3846BDE8F0812D68201D50
:101D70008542EBD1FFF7D8FE08B1FFF704FE002043
:101D8000F2E7000078000020840000201009002005
:101D90000268516002680A600160486070472DE97E
:101DA000F04704460E4617469846DDF8209084F822
:101DB0000990607A20F001006072E66127620020DD
:101DC000A062C4F82480002506E004F1140101EBB0
:101DD000C50000F049F96D1C012DF6DBBDE8F08768
:101DE00070B50446204600F042F910B14FF0FF30C4
:101DF00070BD2068A0F11405A86AF9E710B5024685
:101E0000002001460EE002F1140303EBC100D0E90B
:101E100000436360D0E9003423604060006000BF8D
:101E2000481C01460129EEDB10BD2DE9F8430746A9
:101E30000C4615461E46DDE908892246092138462A
:101E4000FFF775FC4346324629463846CDF80090E8
:101E5000FFF7A5FFBDE8F88370B5044600F048FA27
:101E600005462046FFF7CAFF284600F045FA2046FF
:101E7000FFF780FC002070BD2DE9F843054600F017
:101E800037FA80462846FFF7B9FF687A20F001004C
:101E90006872404600F030FAFEF78BFE696A08442B
:101EA000A86200F025FA8046754F009700242AE0CA
:101EB00019E05DF824201168142202EBC402881A8C
:101EC000826AAB6AD21A00D108E0826AAB6AD21A7F
:101ED0006FF000439A4200D20CE000BF5DF824008E
:101EE00000684DF824005DF8240007EBC401496840
:101EF0008842DED100BF2CB15DF824000830611C9F
:101F00004DF82100641C002CD2D05E480068401CB3
:101F10005C4908600846066805F114010098FFF75F
:101F200037FF022412E006F0030060B9C4F1010398
:101F300005F1140202EBC301C4F101025DF82200B5
:101F4000FFF726FF00E003E0B608641C012CEAD985
:101F500000BF687A40F001006872404600F0CCF99A
:101F60000020BDE8F88370B50446607A00F00100F7
:101F700010B94FF0FF3070BD00F0BAF905462046A9
:101F8000FFF73CFF284600F0B7F9607A20F0010027
:101F900060720020EFE7034649B1012904D002290D
:101FA00008D0032910D10AE0586A10600CE01068CC
:101FB000586209E0587A20F00200587204E0587A1A
:101FC00040F00200587200BF00BF0020704770B59B
:101FD000FEF7EFFD054600F08BF9064628E028489D
:101FE0000068A0F11404A06A281A6FF0004188422A
:101FF0001DD22046FFF702FFD4E907108847FEF7FD
:10200000D8FD0546607A00F0020058B1607A00F011
:10201000010038B1607A20F0010060722046FFF7BD
:102020002BFF05E0607A20F00100607200E004E020
:10203000134800F01CF80028D1D000BF304600F053
:102040005BF970BD10B50E48FFF7CAFE10BD10B5A4
:10205000002405E00A4901EBC40000F005F8641C07
:10206000002CF7D010BD70474060006070470146FB
:102070000868884201D1012070470020FCE7000079
:102080008C00002094000020F0B504460D46164652
:10209000301D20F0070040380146002203E03F4F8A
:1020A00041F82270521C102AF9D30D624FF0000C37
:1020B000C1F824C0C1F828C0C1F82CC0C1F830C094
:1020C0004B638C634FF0807CC1F83CC0F0BD344959
:1020D0000860704770B505462C1D3148006838B15E
:1020E00028462F4909688847064606B970BD00BFD3
:1020F0002CA0E16BFFF738FA2EA0216AFFF734FA23
:1021000030A0616AFFF730FA32A0A16AFFF72CFA1B
:1021100034A0E16AFFF728FA36A02168FFF724FA15
:1021200038A06168FFF720FA3AA0A168FFF71CFA0F
:102130003CA0E168FFF718FA3EA02169FFF714FA06
:1021400040A06169FFF710FA42A0A169FFF70CFAFD
:1021500044A0E169FFF708FA46A0216BFFF704FAF3
:1021600048A0616BFFF700FA4AA0A16BFFF7FCF9EA
:10217000287800F0040038B1FFF7D6FC0646314657
:1021800048A0FFF7F1F902E04EA0FFF7EDF900BF1C
:10219000FEE710B552A0FFF7E7F910BDEFBEADDEC8
:1021A000A40000207073723A203078253038780A05
:1021B000000000007230303A203078253038780A3C
:1021C000000000007230313A203078253038780A2B
:1021D000000000007230323A203078253038780A1A
:1021E000000000007230333A203078253038780A09
:1021F000000000007230343A203078253038780AF8
:10220000000000007230353A203078253038780AE6
:10221000000000007230363A203078253038780AD5
:10222000000000007230373A203078253038780AC4
:10223000000000007230383A203078253038780AB3
:10224000000000007230393A203078253038780AA2
:10225000000000007231303A203078253038780A9A
:10226000000000007231313A203078253038780A89
:10227000000000007231323A203078253038780A78
:1022800000000000206C723A203078253038780A3F
:10229000000000002070633A203078253038780A3A
:1022A0000000000068617264206661756C74206FC4
:1022B0006E207468726561643A2025730D0A0D0AF8
:1022C0000000000068617264206661756C74206FA4
:1022D0006E2068616E646C65720D0A0D0A00000064
:1022E00073687574646F776E2E2E2E0A00000000DE
:1022F000EFF3108072B6704780F310887047324A4F
:102300001368012B04D04FF0010313602F4A1060B3
:102310002F4A11602F484FF0805101607047EFF352
:10232000108272B62848016891B14FF00001016037
:102330002648016829B1EFF3098121E9F00F00680F
:102340000160234909680968B1E8F00F81F3098841
:1023500082F310884EF0040E70471D4908601B4937
:102360004FF00000086018494FF0010008601A485B
:102370004FF47F01D0F8002041EA020101601548C6
:102380004FF08051016015480068006880F30888AC
:1023900061B662B670471EF0040F14BFEFF30880F9
:1023A000EFF3098020E9F00F40F804ED14BF80F34B
:1023B000088880F3098800B5FFF78CFE5DF804EB10
:1023C0004EF0040E70470000A0000020980000208E
:1023D0009C00002004ED00E020ED00E008ED00E0AE
:1023E000064C074D06E0E06840F0010394E8070062
:1023F00098471034AC42F6D3FDF79EFE54250008F2
:102400007425000802E008C8121F08C1002AFAD18A
:1024100070477047002001E001C1121F002AFBD164
:1024200070470000010002000100030001000200EB
:10243000010004000100020001000300010002008D
:10244000010005000100020001000300010002007C
:10245000010004000100020001000300010002006D
:10246000010006000100020001000300010002005B
:10247000010004000100020001000300010002004D
:10248000010005000100020001000300010002003C
:10249000010004000100020001000300010002002D
:1024A000010007000100020001000300010002001A
:1024B000010004000100020001000300010002000D
:1024C00001000500010002000100030001000200FC
:1024D00001000400010002000100030001000200ED
:1024E00001000600010002000100030001000200DB
:1024F00001000400010002000100030001000200CD
:1025000001000500010002000100030001000200BB
:1025100001000400010002000100030001000200AC
:102520000100303132333435363738396162636413
:1025300065660030313233343536373839414243FD
:10254000444546001D0C0008210C0008250C00081D
:10255000290C00087425000800000020A8000000D5
:10256000042400081C260008A8000020680D0000B4
:102570001424000800A24A0400000000000000002B
:102580000102030406070809000000000102030419
:1025900001020304060708090204060800000000FF
:1025A00000000000000000000000000038000020D3
:1025B00038000020780000000100000048000020E2
:1025C0004800002020000000040000005800002007
:1025D00058000020300000000900000068000020C2
:1025E000680000202C000000000000000000000037
:1025F00000000000000000000000000000000000DB
:1026000000000000000000000000000000000000CA
:0C261000000000000000000000000000BE
:0400000508000131BD
:00000001FF
